:020000040800F2
:1000000000280020FD130008A5120008AB1200080C
:10001000B1120008B7120008BD120008000000006D
:10002000000000000000000000000000C3120008F3
:10003000CF12000800000000DB120008E7120008E1
:10004000451400084514000845140008451400082C
:10005000451400084514000845140008451400081C
:10006000451400084514000845140008451400080C
:1000700045140008451400084514000845140008FC
:1000800045140008451400084514000845140008EC
:1000900045140008451400084514000845140008DC
:1000A00045140008451400084514000845140008CC
:1000B000F51200084514000800000000451400086F
:1000C000451400080000000000000000451400086E
:1000D000000000004514000845140008000000005E
:1000E00045140008451400084514000800000000ED
:1000F0000000000000000000000000000000000000
:0C01000000000000000000005FF808F1A3
:10010C0010B5054C237833B9044B13B10448AFF345
:10011C0000800123237010BD50000020000000005F
:10012C00A02A000808B5034B1BB103490348AFF3E1
:10013C00008008BD0000000054000020A02A000828
:10014C0080B483B000AF7860094A7B6852F82330E2
:10015C00012B06D1064A7B68002142F823100123AB
:10016C0000E0002318460C37BD4680BC704700BF2A
:10017C006C00002080B483B000AF7860044A7B68C8
:10018C00012142F8231000BF0C37BD4680BC7047DC
:10019C006C00002080B582B000AF00237B608BE048
:1001AC004A4A7B6852F8232049497B6841F823204E
:1001BC00484A7B6852F8232044497B6841F8232045
:1001CC007B68022B20D07B68022B29DC7B68002B00
:1001DC0003D07B68012B0BD022E080213E4801F03C
:1001EC0019FC034619463B4A7B6842F8231017E07A
:1001FC004FF48071384801F00DFC03461946354A1E
:10020C007B6842F823100BE04FF40071324801F088
:10021C0001FC034619462F4A7B6842F8231000BFA5
:10022C002A4A7B6852F823202A497B6851F82330EC
:10023C009A423ED1254A7B6852F8232024497B6898
:10024C0051F823309A4234D1214A7B6852F823204A
:10025C0022497B6851F823309A4216D01C4A7B689D
:10026C0052F823201D497B6841F82320184A7B68EB
:10027C0052F82330002B1CD17868FFF77BFF184A0B
:10028C007B68642142F8231013E0154A7B6852F80E
:10029C0023305A1E12497B6841F82320104A7B6890
:1002AC0052F82330002B04D10C4A7B68012142F810
:1002BC0023107B6801337B607B68022B7FF770AF68
:1002CC0000BF00BF0837BD4680BD00BF0C0000203A
:1002DC00180000200000002000080140240000202D
:1002EC003000002080B500AF0020FFF729FF034647
:1002FC00002B18D0274B1B68032B03DC254B1B68EA
:10030C00013300E00123234A1360234B01221A60BE
:10031C00204B1B68184600F0EFFC012000F094F90C
:10032C00002000F01FFB0120FFF70AFF0346002B03
:10033C0025D0194B1B68622B03DC174B1B68013350
:10034C0000E00123144A1360134B1A68134B83FB10
:10035C0002139910D317C91A0B469B000B445B0070
:10036C00D11A084600F070F90B4B1B680B4A82FB44
:10037C0003129210DB17D31A184600F0F3FA02207E
:10038C00FFF7DEFE0346002B02D0054B0A221A6053
:10039C0000BF80BD7C0000203C00002067666666C4
:1003AC007800002080B500AF4B4B1B68013B042B41
:1003BC0000F28E8001A252F823F000BFDD0300088A
:1003CC001D0400084D0400087D040008AD0400085D
:1003DC00424B03221A60424B02221A60414B052207
:1003EC001A603D4B02221A603C4B1B684FF47A7228
:1003FC0002FB03F3184600F087FF4FF4FA7000F08D
:10040C009DFF0020FFF79CFE012000F075FC60E0D2
:10041C00314B1B68184600F031FD334B1B68012B28
:10042C000BD12D4B03221A602D4B1B684FF47A72A3
:10043C0002FB03F3184600F067FFFFF753FF48E099
:10044C00254B1B68184600F019FD274B1B68012B28
:10045C000BD1214B04221A60204B1B684FF47A728B
:10046C0002FB03F3184600F04FFFFFF73BFF30E0B1
:10047C00194B1B68184600F001FD1B4B1B68012B28
:10048C000BD1154B05221A60154B1B684FF47A7271
:10049C0002FB03F3184600F037FFFFF723FF18E0C9
:1004AC000D4B1B68184600F0E9FC0F4B1B68012B29
:1004BC000BD1094B02221A60084B1B684FF47A725D
:1004CC0002FB03F3184600F01FFFFFF70BFF00E0E1
:1004DC0000BF00BF80BD00BF78000020800000205E
:1004EC008800002084000020D800002080B500AFD8
:1004FC004F4B1B680A3B042B00F2978001A252F869
:10050C0023F000BF250500086905000895050008C3
:10051C00CD05000805060008464B1B68013B032B64
:10052C001AD801A252F823F0450500084D05000821
:10053C00550500085D0500083D4B0B221A600CE0C8
:10054C003B4B0C221A6008E0394B0D221A6004E078
:10055C00374B0E221A6000E000BF67E0364B0522D5
:10056C001A60364B03221A60354B02221A60304B4C
:10057C0002221A60314B1B684FF47A7202FB03F3B0
:10058C00184600F0C1FE51E02E4B1B682A4A13603E
:10059C00294B1B68032BB8BF0323023B274A13606C
:1005AC00274B02221A60224B02221A60234B1B6833
:1005BC004FF47A7202FB03F3184600F0A5FE35E007
:1005CC00204B1B681E4A13601E4B1B6803331B4ACF
:1005DC0013601C4B1B685B000333174A1360144BEE
:1005EC0005221A60164B1B684FF47A7202FB03F358
:1005FC00184600F089FE19E0124B1B680F4A136075
:10060C00104B1B6802330C4A13600D4B02221A600C
:10061C00074B04221A60094B1B684FF47A7202FBD9
:10062C0003F3184600F070FE00E000BF00BF80BD71
:10063C00780000207C000020840000208000002036
:10064C00880000203C00002080B582B000AF7860AC
:10065C007B68092B00F2808101A252F823F000BFC5
:10066C0095060008DD060008250700086D07000840
:10067C00B5070008FD070008450800088D080008AC
:10068C00D50800081D09000800220121B44801F01A
:10069C00D8F900220221B24801F0D3F9002204213A
:1006AC00AF4801F0CEF900220821AD4801F0C9F99C
:1006BC0000221021AA4801F0C4F900222021A848E8
:1006CC0001F0BFF901224021A54801F0BAF943E13C
:1006DC0001220121A24801F0B4F900220221A04814
:1006EC0001F0AFF9002204219D4801F0AAF9012282
:1006FC0008219B4801F0A5F901221021984801F02E
:10070C00A0F901222021964801F09BF901224021F9
:10071C00934801F096F91FE100220121904801F065
:10072C0090F9002202218E4801F08BF9012204215C
:10073C008B4801F086F900220821894801F081F9E3
:10074C0000221021864801F07CF9012220218448E6
:10075C0001F077F900224021814801F072F9FBE0A9
:10076C00002201217E4801F06CF9002202217C4814
:10077C0001F067F900220421794801F062F90022A6
:10078C000821774801F05DF901221021744801F02D
:10079C0058F901222021724801F053F9002240211E
:1007AC006F4801F04EF9D7E0012201216C4801F0AD
:1007BC0048F9002202216A4801F043F90022042181
:1007CC00674801F03EF901220821654801F039F92A
:1007DC0001221021624801F034F9002220216048E6
:1007EC0001F02FF9002240215D4801F02AF9B3E015
:1007FC00002201215A4801F024F901220221584813
:10080C0001F01FF900220421554801F01AF90022C9
:10081C000821534801F015F901221021504801F02C
:10082C0010F9002220214E4801F00BF90022402142
:10083C004B4801F006F98FE000220121484801F0F5
:10084C0000F901220221464801F0FBF800220421A4
:10085C00434801F0F6F800220821414801F0F1F874
:10086C00002210213E4801F0ECF8002220213C48E7
:10087C0001F0E7F800224021394801F0E2F86BE082
:10088C0000220121364801F0DCF800220221344814
:10089C0001F0D7F800220421314801F0D2F80122EE
:1008AC0008212F4801F0CDF8012210212C4801F02D
:1008BC00C8F8012220212A4801F0C3F80122402166
:1008CC00274801F0BEF847E000220121244801F03E
:1008DC00B8F800220221224801F0B3F800220421CA
:1008EC001F4801F0AEF8002208211D4801F0A9F8BC
:1008FC00002210211A4801F0A4F8002220211848E7
:10090C0001F09FF800224021154801F09AF823E0ED
:10091C0000220121124801F094F800220221104813
:10092C0001F08FF8002204210D4801F08AF8002212
:10093C0008210B4801F085F801221021084801F02C
:10094C0080F800222021064801F07BF8002240218B
:10095C00034801F076F800BF00BF0837BD4680BDE4
:10096C00000C014080B582B000AF78607B68092B29
:10097C0000F2BC8101A252F823F000BFB1090008BB
:10098C00050A0008590A0008AD0A0008010B000806
:10099C00550B0008A90B0008FD0B0008510C0008B2
:1009AC00A50C000800228021D24801F04AF8002250
:1009BC004FF48071CF4801F044F800224FF40071DD
:1009CC00CC4801F03EF800224FF48061C94801F098
:1009DC0038F800224FF40061C64801F032F80022CA
:1009EC004FF48051C34801F02CF801224FF4005110
:1009FC00C04801F026F879E101228021BD4801F0C0
:100A0C0020F800224FF48071BA4801F01AF8002245
:100A1C004FF40071B74801F014F801224FF48061D3
:100A2C00B44801F00EF801224FF40061B14801F016
:100A3C0008F801224FF48051AE4801F002F801226F
:100A4C004FF40051AB4800F0FCFF4FE10022802135
:100A5C00A84800F0F6FF00224FF48071A54800F082
:100A6C00F0FF01224FF40071A24800F0EAFF0022CF
:100A7C004FF480619F4800F0E4FF00224FF40061C6
:100A8C009C4800F0DEFF01224FF48051994800F0A1
:100A9C00D8FF00224FF40051964800F0D2FF25E118
:100AAC0000228021934800F0CCFF00224FF480718B
:100ABC00904800F0C6FF00224FF400718D4800F002
:100ACC00C0FF00224FF480618A4800F0BAFF012277
:100ADC004FF40061874800F0B4FF01224FF48051BD
:100AEC00844800F0AEFF00224FF40051814800F022
:100AFC00A8FFFBE0012280217E4800F0A2FF00222B
:100B0C004FF480717B4800F09CFF00224FF4007181
:100B1C00784800F096FF01224FF48061754800F090
:100B2C0090FF01224FF40061724800F08AFF00220E
:100B3C004FF480516F4800F084FF00224FF40051B5
:100B4C006C4800F07EFFD1E000228021694800F063
:100B5C0078FF01224FF48071664800F072FF00228A
:100B6C004FF40071634800F06CFF00224FF4806179
:100B7C00604800F066FF01224FF400615D4800F010
:100B8C0060FF00224FF480515A4800F05AFF0022B7
:100B9C004FF40051574800F054FFA7E00022802189
:100BAC00544800F04EFF01224FF48071514800F080
:100BBC0048FF00224FF400714E4800F042FF002223
:100BCC004FF480614B4800F03CFF00224FF4006171
:100BDC00484800F036FF00224FF48051454800F0A1
:100BEC0030FF00224FF40051424800F02AFF7DE014
:100BFC00002280213F4800F024FF00224FF4807136
:100C0C003C4800F01EFF00224FF40071394800F000
:100C1C0018FF01224FF48061364800F012FF0122C8
:100C2C004FF40061334800F00CFF01224FF4805167
:100C3C00304800F006FF01224FF400512D4800F01F
:100C4C0000FF53E0002280212A4800F0FAFE002227
:100C5C004FF48071274800F0F4FE00224FF400712D
:100C6C00244800F0EEFE00224FF48061214800F091
:100C7C00E8FE00224FF400611E4800F0E2FE002264
:100C8C004FF480511B4800F0DCFE00224FF4005161
:100C9C00184800F0D6FE29E000228021154800F00B
:100CAC00D0FE00224FF48071124800F0CAFE0022E0
:100CBC004FF400710F4800F0C4FE00224FF4806125
:100CCC000C4800F0BEFE01224FF40061094800F010
:100CDC00B8FE00224FF48051064800F0B2FE00220C
:100CEC004FF40051034800F0ACFE00BF00BF0837C2
:100CFC00BD4680BD000C014080B582B000AF78606D
:100D0C007B68013B032B00F2B38001A252F823F065
:100D1C002D0D0008810D0008D50D0008290E0008C6
:100D2C0001220121544800F08CFE00224FF4806116
:100D3C00514800F086FE00224FF400614E4800F04E
:100D4C0080FE01224FF480514B4800F07AFE0122C4
:100D5C004FF40051484800F074FE01224FF48041DA
:100D6C00454800F06EFE01224FF40041424800F06D
:100D7C0068FE7DE0002201213F4800F062FE002267
:100D8C004FF480613C4800F05CFE01224FF400619E
:100D9C00394800F056FE00224FF48051364800F0DE
:100DAC0050FE00224FF40051334800F04AFE01225D
:100DBC004FF48041304800F044FE00224FF40041D3
:100DCC002D4800F03EFE53E0002201212A4800F09D
:100DDC0038FE00224FF48061274800F032FE0022DA
:100DEC004FF40061244800F02CFE00224FF4805197
:100DFC00214800F026FE01224FF400511E4800F05D
:100E0C0020FE01224FF480411B4800F01AFE002204
:100E1C004FF40041184800F014FE29E00122012192
:100E2C00154800F00EFE00224FF48061124800F0CD
:100E3C0008FE00224FF400610F4800F002FE012270
:100E4C004FF480510C4800F0FCFD01224FF400518E
:100E5C00094800F0F6FD00224FF48041064800F0EE
:100E6C00F0FD00224FF40041034800F0EAFD00BF02
:100E7C0000BF0837BD4680BD0008014080B582B078
:100E8C0000AF78607B68013B042B00F29C8001A2D0
:100E9C0052F823F0B50E0008CB0E00080D0F000819
:100EAC004F0F0008910F000801220E214C4800F052
:100EBC00C8FD012270214A4800F0C3FD8CE00122DC
:100ECC003C21474800F0BDFD00224021444800F081
:100EDC00B8FD444B1B68022B0CD1434B1B68012BF8
:100EEC0073D102213E4800F0C4FD4FF4FA7000F0BB
:100EFC0025FA6AE000220221394800F0A2FD64E0E4
:100F0C0001225C21364800F09CFD0022202134484F
:100F1C0000F097FD334B1B68022B0CD1324B1B6836
:100F2C00012B54D102212E4800F0A3FD4FF4FA708E
:100F3C0000F004FA4BE000220221294800F081FD68
:100F4C0045E001226621264800F07BFD002210219D
:100F5C00234800F076FD234B1B68042B0CD1224B4D
:100F6C001B68012B35D108211D4800F082FD4FF480
:100F7C00FA7000F0E3F92CE000220821184800F088
:100F8C0060FD26E001226A21154800F05AFD00227E
:100F9C001021134800F055FD124B1B68032B0CD18C
:100FAC00114B1B68012B16D104210D4800F061FD7B
:100FBC004FF4FA7000F0C2F90DE000220421084849
:100FCC0000F03FFD07E000BF06E000BF04E000BFFB
:100FDC0002E000BF00E000BF00BF0837BD4680BD87
:100FEC00000801407C000020E000002080B500AF2C
:100FFC0000F024FA00F018F800F09EF800F050F819
:10100C00064801F087F9064B01221A60054B0122B4
:10101C001A60FFF7C7F9FFF769FAFAE78C000020AE
:10102C00780000207C00002080B590B000AF07F164
:10103C00180328220021184601F024FD3B1D002234
:10104C001A605A609A60DA601A610223BB6101234C
:10105C00BB621023FB6200237B6307F11803184665
:10106C0000F020FD0346002B01D000F0C9F80F233F
:10107C007B600023BB600023FB6000233B610023EB
:10108C007B613B1D0021184600F08EFF0346002BB0
:10109C0001D000F0B5F800BF4037BD4680BD000060
:1010AC0080B586B000AF07F1080300221A605A60C1
:1010BC009A60DA603B4600221A605A601D4B4FF072
:1010CC0080421A601B4B41F63F725A60194B00224A
:1010DC009A60184B0A22DA60164B00221A61154BE3
:1010EC0000229A61134801F0C5F80346002B01D089
:1010FC0000F086F84FF48053BB6007F108031946E3
:10110C000C4801F05BFA0346002B01D000F078F894
:10111C0000233B6000237B603B461946054801F0E9
:10112C0023FC0346002B01D000F06AF800BF1837EF
:10113C00BD4680BD8C00002080B586B000AF07F1A5
:10114C00080300221A605A609A60DA60294B9B6986
:10115C00284A43F004039361264B9B6903F0040374
:10116C007B607B68234B9B69224A43F008039361A5
:10117C00204B9B6903F008033B603B6800224FF651
:10118C007F411D4800F05DFC002243F6FF711B48B7
:10119C0000F057FC4FF67F43BB600123FB6000233C
:1011AC003B6102237B6107F108031946124800F0EA
:1011BC00B5FA4FF46073BB600023FB6001233B6105
:1011CC0007F1080319460C4800F0A8FA43F6FF7320
:1011DC00BB600123FB6000233B6102237B6107F1B1
:1011EC0008031946054800F099FA00BF1837BD46A8
:1011FC0080BD00BF0010024000080140000C0140FF
:10120C0080B400AF72B600BFFEE7000080B483B0BC
:10121C0000AF0E4B9B690D4A43F0010393610B4BDE
:10122C009B6903F001037B607B68084BDB69074A11
:10123C0043F08053D361054BDB6903F080533B6073
:10124C003B6800BF0C37BD4680BC704700100240A5
:10125C0080B584B000AF78607B681B68B3F1804FB9
:10126C0013D10C4BDB690B4A43F00103D361094BDF
:10127C00DB6903F00103FB60FB68002200211C20EA
:10128C0000F015FA1C2000F02EFA00BF1037BD46F6
:10129C0080BD00BF0010024080B400AFFEE780B4F8
:1012AC0000AFFEE780B400AFFEE780B400AFFEE70E
:1012BC0080B400AFFEE780B400AF00BFBD4680BC79
:1012CC00704780B400AF00BFBD4680BC704780B48F
:1012DC0000AF00BFBD4680BC704780B500AF00F0CA
:1012EC00F3F800BF80BD000080B500AF024801F0EC
:1012FC005DF800BF80BD00BF8C00002080B400AF43
:10130C0000BFBD4680BC704780B483B000AF78602E
:10131C00074B1B687A6892FBF3F3064A1360064B83
:10132C0000221A6000BF0C37BD4680BC704700BF5E
:10133C0044000020D4000020D800002080B483B0EA
:10134C0000AF7860074B1B687A6892FBF3F3064A90
:10135C001360064B00221A6000BF0C37BD4680BCE0
:10136C00704700BF44000020DC000020E00000209B
:10137C0080B400AF114B1B68002B0BDD0F4B1B68AF
:10138C00013B0E4A13600D4B1B68002B02DC0C4B0F
:10139C0001221A600B4B1B68002B0BDD094B1B68E1
:1013AC00013B084A1360074B1B68002B02DC064B01
:1013BC0001221A6000BFBD4680BC7047D4000020DB
:1013CC00D8000020DC000020E000002080B582B0B6
:1013DC0000AF78607B681B68B3F1804F01D1FEF7DA
:1013EC00D9FEFFF7C5FF00BF0837BD4680BD000022
:1013FC000C480D490D4A002302E0D458C450043364
:10140C00C4188C42F9D30A4A0A4C002301E0136039
:10141C000432A242FBD3FFF771FF01F00FFBFFF781
:10142C00E5FD70470000002050000020E02A000875
:10143C0050000020E8000020FEE7000080B500AF5F
:10144C00084B1B68074A43F010031360032000F09D
:10145C0023F90F2000F008F8FFF7D8FE00231846F8
:10146C0080BD00BF0020024080B582B000AF786024
:10147C00124B1A68124B1B7819464FF47A73B3FB54
:10148C00F1F3B2FBF3F3184600F03BF90346002BE3
:10149C0001D001230EE07B680F2B0AD8002279685B
:1014AC004FF0FF3000F003F9064A7B68136000230D
:1014BC0000E0012318460837BD4680BD40000020DF
:1014CC004C0000204800002080B400AF054B1B7876
:1014DC001A46054B1B681344034A136000BFBD46F4
:1014EC0080BC70474C000020E400002080B400AFAA
:1014FC00024B1B681846BD4680BC7047E4000020B8
:10150C0080B485B000AF78607B6803F00703FB60A4
:10151C000C4BDB68BB60BA684FF6FF031340BB6033
:10152C00FB681A02BB68134343F0BF6343F40033F8
:10153C00BB60044ABB68D36000BF1437BD4680BC97
:10154C00704700BF00ED00E080B400AF044BDB68D7
:10155C001B0A03F007031846BD4680BC704700BF4A
:10156C0000ED00E080B483B000AF0346FB7197F947
:10157C000730002B0BDBFB7903F01F02064997F9B0
:10158C0007305B09012000FA02F241F8232000BF6A
:10159C000C37BD4680BC704700E100E080B483B0DE
:1015AC0000AF03463960FB7197F90730002B0ADB5B
:1015BC003B68DAB20C4997F907301201D2B20B44EE
:1015CC0083F800230AE03B68DAB20849FB7903F0A0
:1015DC000F03043B1201D2B20B441A7600BF0C3736
:1015EC00BD4680BC704700BF00E100E000ED00E0AC
:1015FC0080B489B000AFF860B9607A60FB6803F022
:10160C000703FB61FB69C3F10703042B28BF042309
:10161C00BB61FB690433062B02D9FB69033B00E079
:10162C0000237B614FF0FF32BB6902FA03F3DA430C
:10163C00BB681A407B699A404FF0FF317B6901FA15
:10164C0003F3D9437B680B40134318462437BD463C
:10165C0080BC704780B582B000AF78607B68013B7E
:10166C00B3F1807F01D301230FE00A4A7B68013B71
:10167C0053600F214FF0FF30FFF790FF054B002216
:10168C009A60044B07221A60002318460837BD469F
:10169C0080BD00BF10E000E080B582B000AF786084
:1016AC007868FFF72DFF00BF0837BD4680BD80B5B9
:1016BC0086B000AF0346B9607A60FB7300237B6190
:1016CC00FFF742FF78617A68B9687869FFF790FF95
:1016DC00024697F90F3011461846FFF75FFF00BF1F
:1016EC001837BD4680BD80B582B000AF0346FB7194
:1016FC0097F907301846FFF735FF00BF0837BD468E
:10170C0080BD80B582B000AF78607868FFF7A2FF2B
:10171C00034618460837BD4680BD000080B48BB028
:10172C0000AF7860396000237B6200233B6261E18B
:10173C0001227B6A02FA03F3FB613B681B68FA69BE
:10174C001340BB61BA69FB699A4240F050813B6817
:10175C005B68974A93425ED0954A934275D8954AF6
:10176C00934258D0934A93426FD8934A934252D0A3
:10177C00914A934269D8914A93424CD08F4A9342F2
:10178C0063D88F4A934246D08D4A93425DD8122B30
:10179C002AD8122B59D801A252F823F0231800088A
:1017AC00FD1700080F1800085118000857180008FA
:1017BC005718000857180008571800085718000841
:1017CC005718000857180008571800085718000831
:1017DC005718000857180008571800085718000821
:1017EC000518000819180008764A934213D02CE00B
:1017FC003B68DB683B6229E03B68DB6804333B6297
:10180C0024E03B68DB6808333B621FE03B68DB6825
:10181C000C333B621AE03B689B68002B02D104231B
:10182C003B6213E03B689B68012B05D108233B62AC
:10183C007B68FA691A6109E008233B627B68FA69E4
:10184C005A6103E000233B6200E000BFBB69FF2B41
:10185C0001D87B6801E07B6804337B61BB69FF2B9B
:10186C0002D87B6A9B0002E07B6A083B9B003B61D1
:10187C007B691A680F213B6901FA03F3DB431A40B9
:10188C00396A3B6901FA03F31A437B691A603B68B6
:10189C005B6803F08053002B00F0A9804A4B9B69D6
:1018AC00494A43F001039361474B9B6903F00103E1
:1018BC00BB60BB68454A7B6A9B08023352F82330F5
:1018CC00FB607B6A03F003039B000F2202FA03F315
:1018DC00DB43FA681340FB607B683D4A93420DD0B2
:1018EC007B683C4A934207D07B683B4A934201D1C8
:1018FC00022304E0032302E0012300E000237A6AC0
:10190C0002F0030292009340FA681343FB602F49E4
:10191C007B6A9B080233FA6841F823203B685B68BA
:10192C0003F48033002B06D02C4B1A682B49BB696F
:10193C0013430B6006E0294B1A68BB69DB4327494C
:10194C0013400B603B685B6803F40033002B06D03C
:10195C00224B5A682149BB6913434B6006E01F4B6D
:10196C005A68BB69DB431D4913404B603B685B689D
:10197C0003F48013002B06D0184B9A681749BB69E7
:10198C0013438B6006E0154B9A68BB69DB43134924
:10199C0013408B603B685B6803F40013002B1FD073
:1019AC000E4BDA680D49BB691343CB601FE000BFD7
:1019BC000000321000003110000022100000211035
:1019CC000000121000001110001002400000014035
:1019DC0000080140000C01400010014000040140CF
:1019EC000B4BDA68BB69DB4309491340CB607B6A5C
:1019FC0001337B623B681A687B6A22FA03F3002B83
:101A0C007FF496AE00BF00BF2C37BD4680BC70473C
:101A1C000004014080B485B000AF78600B467B8039
:101A2C007B689A687B881340002B02D00123FB73E0
:101A3C0001E00023FB73FB7B18461437BD4680BCCA
:101A4C00704780B483B000AF78600B467B80134640
:101A5C007B707B78002B03D07A887B681A6103E05B
:101A6C007B881A047B681A6100BF0C37BD4680BCAA
:101A7C00704780B485B000AF78600B467B807B6884
:101A8C00DB68FB607A88FB6813401A04FB68D94357
:101A9C007B880B401A437B681A6100BF1437BD4624
:101AAC0080BC704780B586B000AF78607B68002B37
:101ABC0001D1012372E27B681B6803F00103002B48
:101ACC0000F08780924B5B6803F00C03042B0CD066
:101ADC008F4B5B6803F00C03082B12D18C4B5B68AB
:101AEC0003F48033B3F5803F0BD1894B1B6803F4AF
:101AFC000033002B6CD07B685B68002B68D1012312
:101B0C004CE27B685B68B3F5803F06D1804B1B6869
:101B1C007F4A43F4803313602EE07B685B68002BB4
:101B2C000CD17B4B1B687A4A23F480331360784BBF
:101B3C001B68774A23F4802313601DE07B685B6885
:101B4C00B3F5A02F0CD1724B1B68714A43F4802360
:101B5C0013606F4B1B686E4A43F4803313600BE0C9
:101B6C006B4B1B686A4A23F480331360684B1B6809
:101B7C00674A23F4802313607B685B68002B13D0C7
:101B8C00FFF7B4FC386108E0FFF7B0FC02463B6994
:101B9C00D31A642B01D9032300E25D4B1B6803F4B9
:101BAC000033002BF0D014E0FFF7A0FC386108E004
:101BBC00FFF79CFC02463B69D31A642B01D9032323
:101BCC00ECE1534B1B6803F40033002BF0D100E025
:101BDC0000BF7B681B6803F00203002B63D04C4BE7
:101BEC005B6803F00C03002B0BD0494B5B6803F0D4
:101BFC000C03082B1CD1464B5B6803F48033002B81
:101C0C0016D1434B1B6803F00203002B05D07B68F5
:101C1C001B69012B01D00123C0E13D4B1B6823F054
:101C2C00F8027B685B69DB00394913430B603AE0CF
:101C3C007B681B69002B20D0364B01221A60FFF702
:101C4C0055FC386108E0FFF751FC02463B69D31A9A
:101C5C00022B01D90323A1E12D4B1B6803F00203D6
:101C6C00002BF0D02A4B1B6823F0F8027B685B69D1
:101C7C00DB00274913430B6015E0264B00221A604A
:101C8C00FFF734FC386108E0FFF730FC02463B6993
:101C9C00D31A022B01D9032380E11D4B1B6803F0DF
:101CAC000203002BF0D17B681B6803F00803002BA8
:101CBC003AD07B689B69002B19D0174B01221A6014
:101CCC00FFF714FC386108E0FFF710FC02463B6993
:101CDC00D31A022B01D9032360E10D4B5B6A03F08D
:101CEC000203002BF0D0012000F0A6FA1CE00A4BF6
:101CFC0000221A60FFF7FAFB38610FE0FFF7F6FBE2
:101D0C0002463B69D31A022B08D9032346E100BFD4
:101D1C00001002400000424280044242924B5B6A37
:101D2C0003F00203002BE9D17B681B6803F004036A
:101D3C00002B00F0A6800023FB758B4BDB6903F0B6
:101D4C008053002B0DD1884BDB69874A43F08053BD
:101D5C00D361854BDB6903F08053BB60BB68012307
:101D6C00FB75824B1B6803F48073002B18D17F4BDF
:101D7C001B687E4A43F480731360FFF7B7FB38612E
:101D8C0008E0FFF7B3FB02463B69D31A642B01D979
:101D9C00032303E1754B1B6803F48073002BF0D015
:101DAC007B68DB68012B06D16F4B1B6A6E4A43F0D4
:101DBC00010313622DE07B68DB68002B0CD16A4BAE
:101DCC001B6A694A23F001031362674B1B6A664A5C
:101DDC0023F0040313621CE07B68DB68052B0CD139
:101DEC00614B1B6A604A43F0040313625E4B1B6A2F
:101DFC005D4A43F0010313620BE05B4B1B6A5A4ACA
:101E0C0023F001031362584B1B6A574A23F0040357
:101E1C0013627B68DB68002B15D0FFF767FB38611A
:101E2C000AE0FFF763FB02463B69D31A41F28832A2
:101E3C00934201D90323B1E04B4B1B6A03F002031D
:101E4C00002BEED014E0FFF751FB38610AE0FFF7EE
:101E5C004DFB02463B69D31A41F28832934201D9B9
:101E6C0003239BE0404B1B6A03F00203002BEED1D3
:101E7C00FB7D012B05D13C4BDB693B4A23F08053A6
:101E8C00D3617B68DB69002B00F08780364B5B6885
:101E9C0003F00C03082B61D07B68DB69022B46D165
:101EAC00334B00221A60FFF721FB386108E0FFF783
:101EBC001DFB02463B69D31A022B01D903236DE0AB
:101ECC00294B1B6803F00073002BF0D17B681B6A55
:101EDC00B3F5803F08D1244B5B6823F400327B6858
:101EEC009B68214913434B601F4B5B6823F47412AE
:101EFC007B68196A7B685B6A0B431B4913434B6015
:101F0C001B4B01221A60FFF7F1FA386108E0FFF76A
:101F1C00EDFA02463B69D31A022B01D903233DE0AB
:101F2C00114B1B6803F00073002BF0D035E0104B05
:101F3C0000221A60FFF7DAFA386108E0FFF7D6FAE8
:101F4C0002463B69D31A022B01D9032326E0064B28
:101F5C001B6803F00073002BF0D11EE07B68DB697B
:101F6C00012B07D1012319E0001002400070004042
:101F7C00600042420B4B5B68FB60FB6803F48032F1
:101F8C007B681B6A9A4206D1FB6803F470127B686B
:101F9C005B6A9A4201D0012300E0002318461837EF
:101FAC00BD4680BD0010024080B584B000AF7860A3
:101FBC0039607B68002B01D10123D0E06A4B1B6890
:101FCC0003F007033A689A4210D9674B1B6823F059
:101FDC00070265493B6813430B60634B1B6803F0B6
:101FEC0007033A689A4201D00123B8E07B681B686A
:101FFC0003F00203002B20D07B681B6803F0040362
:10200C00002B05D0594B5B68584A43F4E06353608E
:10201C007B681B6803F00803002B05D0534B5B68EF
:10202C00524A43F460535360504B5B6823F0F00208
:10203C007B689B684D4913434B607B681B6803F0BE
:10204C000103002B40D07B685B68012B07D1474B09
:10205C001B6803F40033002B15D101237FE07B6850
:10206C005B68022B07D1414B1B6803F00073002BFC
:10207C0009D1012373E03D4B1B6803F00203002BD5
:10208C0001D101236BE0394B5B6823F003027B68C1
:10209C005B68364913434B60FFF728FAF8600AE097
:1020AC00FFF724FA0246FB68D31A41F288329342B6
:1020BC0001D9032353E02D4B5B6803F00C027B68C2
:1020CC005B689B009A42EBD1274B1B6803F007031C
:1020DC003A689A4210D2244B1B6823F0070222491B
:1020EC003B6813430B60204B1B6803F007033A68F3
:1020FC009A4201D0012332E07B681B6803F0040391
:10210C00002B08D0194B5B6823F4E0627B68DB681A
:10211C00164913434B607B681B6803F00803002BC4
:10212C0009D0124B5B6823F460527B681B69DB009F
:10213C000E4913434B6000F021F802460B4B5B68D1
:10214C001B0903F00F030A49CB5C22FA03F3094A7B
:10215C001360094B1B681846FFF786F900231846D5
:10216C001037BD4680BD00BF002002400010024069
:10217C00C82A0008400000204800002090B48AB013
:10218C0000AF294B3C1D0FCB84E80F0040F201231C
:10219C003B800023FB610023BB6100237B62002397
:1021AC007B6100233B62214B5B68FB61FB6903F0A5
:1021BC000C03042B02D0082B03D02BE01C4B3B62EE
:1021CC002BE0FB699B0C03F00F0328333B4413F803
:1021DC00243C7B61FB6903F48033002B12D0134B3E
:1021EC005B685B0C03F0010328333B4413F8283C79
:1021FC00BB617B690E4A03FB02F2BB69B2FBF3F3D2
:10220C007B6204E07B690B4A02FB03F37B627B6A13
:10221C003B6202E0064B3B6200BF3B6A1846283724
:10222C00BD4690BC704700BFB82A000800100240A1
:10223C0000127A0000093D0080B485B000AF7860D0
:10224C000A4B1B680A4AA2FB03235B0A7A6802FB4F
:10225C0003F3FB6000BFFB685A1EFA60002BF9D138
:10226C0000BF00BF1437BD4680BC70474000002043
:10227C00D34D621080B582B000AF78607B68002BC4
:10228C0001D1012341E07B6893F83D30DBB2002B98
:10229C0006D17B68002283F83C207868FEF7D8FFD3
:1022AC007B68022283F83D207B681A687B680433C4
:1022BC001946104600F06AFA7B68012283F8462022
:1022CC007B68012283F83E207B68012283F83F2043
:1022DC007B68012283F840207B68012283F841202F
:1022EC007B68012283F842207B68012283F843201B
:1022FC007B68012283F844207B68012283F8452007
:10230C007B68012283F83D20002318460837BD4620
:10231C0080BD000080B485B000AF78607B6893F816
:10232C003D30DBB2012B01D0012335E07B6802226A
:10233C0083F83D207B681B68DA687B681B6842F079
:10234C000102DA607B681B68164A934209D07B68ED
:10235C001B68B3F1804F04D07B681B68124A934210
:10236C0011D17B681B689B6803F00703FB60FB685B
:10237C00062B10D07B681B681A687B681B6842F0C0
:10238C0001021A6007E07B681B681A687B681B688F
:10239C0042F001021A60002318461437BD4680BC77
:1023AC00704700BF002C01400004004080B582B093
:1023BC0000AF78607B681B681B6903F00203022B7B
:1023CC0022D17B681B68DB6803F00203022B1BD154
:1023DC007B681B686FF002021A617B6801221A7716
:1023EC007B681B689B6903F00303002B03D07868A0
:1023FC0000F0B1F905E0786800F0A4F9786800F015
:10240C00B3F97B6800221A777B681B681B6903F0A1
:10241C000403042B22D17B681B68DB6803F00403E4
:10242C00042B1BD17B681B686FF004021A617B685C
:10243C0002221A777B681B689B6903F44073002B9C
:10244C0003D0786800F087F905E0786800F07AF935
:10245C00786800F089F97B6800221A777B681B6822
:10246C001B6903F00803082B22D17B681B68DB680F
:10247C0003F00803082B1BD17B681B686FF0080264
:10248C001A617B6804221A777B681B68DB6903F08E
:10249C000303002B03D0786800F05DF905E0786841
:1024AC0000F050F9786800F05FF97B6800221A7729
:1024BC007B681B681B6903F01003102B22D17B680F
:1024CC001B68DB6803F01003102B1BD17B681B68A7
:1024DC006FF010021A617B6808221A777B681B6800
:1024EC00DB6903F44073002B03D0786800F033F9F8
:1024FC0005E0786800F026F9786800F035F97B681B
:10250C0000221A777B681B681B6903F00103012BFF
:10251C000ED17B681B68DB6803F00103012B07D12C
:10252C007B681B686FF001021A617868FEF74EFF3A
:10253C007B681B681B6903F08003802B0ED17B68C2
:10254C001B68DB6803F08003802B07D17B681B685A
:10255C006FF080021A61786800F067FA7B681B687C
:10256C001B6903F04003402B0ED17B681B68DB68B2
:10257C0003F04003402B07D17B681B686FF04002CF
:10258C001A61786800F0F9F87B681B681B6903F026
:10259C002003202B0ED17B681B68DB6803F0200323
:1025AC00202B07D17B681B686FF020021A617868BA
:1025BC0000F032FA00BF0837BD4680BD80B584B04C
:1025CC0000AF786039607B6893F83C30012B01D107
:1025DC000223B3E07B68012283F83C207B68022253
:1025EC0083F83D207B681B689B68FB60FB6823F0CD
:1025FC007703FB60FB6823F47F43FB607B681B68FD
:10260C00FA689A603B681B68B3F5005F3ED0B3F57F
:10261C00005F00F28780B3F5805F00F08580B3F532
:10262C00805F7FD8702B1AD0702B7BD8602B50D04A
:10263C00602B77D8502B3CD0502B73D8402B58D0D4
:10264C00402B6FD8302B64D0302B6BD8202B60D024
:10265C00202B67D8002B5CD0102B5AD062E07B6803
:10266C0018683B6899683B685A683B68DB6800F0FF
:10267C005CF97B681B689B68FB60FB6843F0770325
:10268C00FB607B681B68FA689A604EE07B68186890
:10269C003B6899683B685A683B68DB6800F045F911
:1026AC007B681B689A687B681B6842F480429A605E
:1026BC003BE07B6818683B6859683B68DB681A46E6
:1026CC0000F0BCF87B681B685021184600F013F929
:1026DC002BE07B6818683B6859683B68DB681A46D6
:1026EC0000F0DAF87B681B686021184600F003F9EB
:1026FC001BE07B6818683B6859683B68DB681A46C6
:10270C0000F09CF87B681B684021184600F0F3F839
:10271C000BE07B681A683B681B681946104600F092
:10272C00EAF802E000BF00E000BF7B68012283F8FA
:10273C003D207B68002283F83C200023184610378C
:10274C00BD4680BD80B483B000AF786000BF0C374D
:10275C00BD4680BC704780B483B000AF786000BFCA
:10276C000C37BD4680BC704780B483B000AF786036
:10277C0000BF0C37BD4680BC704780B483B000AF3F
:10278C00786000BF0C37BD4680BC704780B485B004
:10279C0000AF786039607B681B68FB607B68254AFA
:1027AC00934207D07B68B3F1804F03D07B68224AF9
:1027BC00934208D1FB6823F07003FB603B685B68B5
:1027CC00FA681343FB607B681A4A934207D07B6814
:1027DC00B3F1804F03D07B68174A934208D1FB6852
:1027EC0023F44073FB603B68DB68FA681343FB60BF
:1027FC00FB6823F080023B685B691343FB607B68DA
:10280C00FA681A603B689A687B68DA623B681A68F7
:10281C007B689A627B68074A934203D13B681A69CA
:10282C007B681A637B6801225A6100BF1437BD466E
:10283C0080BC7047002C01400004004080B487B07D
:10284C0000AFF860B9607A60FB681B6A7B61FB685B
:10285C001B6A23F00102FB681A62FB689B693B61EF
:10286C003B6923F0F0033B617B681B013A6913431E
:10287C003B617B6923F00A037B617A69BB68134374
:10288C007B61FB683A699A61FB687A691A6200BFDE
:10289C001C37BD4680BC704780B487B000AFF86071
:1028AC00B9607A60FB681B6A23F01002FB681A623D
:1028BC00FB689B697B61FB681B6A3B617B6923F44A
:1028CC0070437B617B681B037A6913437B613B69B3
:1028DC0023F0A0033B61BB681B013A6913433B61C6
:1028EC00FB687A699A61FB683A691A6200BF1C3707
:1028FC00BD4680BC704780B485B000AF786039604D
:10290C007B689B68FB60FB6823F07003FB603A6894
:10291C00FB68134343F00703FB607B68FA689A601B
:10292C0000BF1437BD4680BC704780B487B000AF81
:10293C00F860B9607A603B60FB689B687B617B697F
:10294C0023F47F437B613B681A027B681A43BB68A4
:10295C0013437A6913437B61FB687A699A6000BF01
:10296C001C37BD4680BC704780B485B000AF786022
:10297C0039607B6893F83C30012B01D1022341E094
:10298C007B68012283F83C207B68022283F83D207F
:10299C007B681B685B68FB607B681B689B68BB6023
:1029AC00FB6823F07003FB603B681B68FA681343F9
:1029BC00FB607B681B68FA685A607B681B68144A6A
:1029CC00934209D07B681B68B3F1804F04D07B68BD
:1029DC001B68104A93420CD1BB6823F08003BB6088
:1029EC003B685B68BA681343BB607B681B68BA685A
:1029FC009A607B68012283F83D207B68002283F873
:102A0C003C20002318461437BD4680BC704700BFDD
:102A1C00002C01400004004080B483B000AF78600B
:102A2C0000BF0C37BD4680BC704780B483B000AF8C
:102A3C00786000BF0C37BD4680BC704770B500266F
:102A4C000C4D0D4C641BA410A64209D100F022F8C9
:102A5C0000260A4D0A4C641BA410A64205D170BD79
:102A6C0055F8043B98470136EEE755F8043B984778
:102A7C000136F2E7D82A0008D82A0008D82A00081C
:102A8C00DC2A000803460244934200D1704703F845
:102A9C00011BF9E7F8B500BFF8BC08BC9E467047AF
:0C2AAC00F8B500BFF8BC08BC9E4670479F
:102AB80002030405060708090A0B0C0D0E0F101077
:102AC80000000000000000000102030406070809D6
:042AD80031010008C0
:042ADC000D010008E0
:102AE00001000000010000000100000001000000E2
:102AF00001000000010000000100000001000000D2
:102B000001000000010000000100000001000000C1
:102B10006400000064000000640000000100000088
:102B20000024F4000A000000100000000100000072
:04000005080013FDDF
:00000001FF
